{
  "_format": "hh-sol-artifact-1",
  "contractName": "SolidaryHub",
  "sourceName": "contracts/core_infrastructure/SolidaryHub.sol",
  "abi": [
    {
      "inputs": [],
      "stateMutability": "nonpayable",
      "type": "constructor"
    },
    {
      "inputs": [],
      "name": "AccessControlBadConfirmation",
      "type": "error"
    },
    {
      "inputs": [
        {
          "internalType": "address",
          "name": "account",
          "type": "address"
        },
        {
          "internalType": "bytes32",
          "name": "neededRole",
          "type": "bytes32"
        }
      ],
      "name": "AccessControlUnauthorizedAccount",
      "type": "error"
    },
    {
      "inputs": [
        {
          "internalType": "address",
          "name": "target",
          "type": "address"
        }
      ],
      "name": "AddressEmptyCode",
      "type": "error"
    },
    {
      "inputs": [
        {
          "internalType": "address",
          "name": "implementation",
          "type": "address"
        }
      ],
      "name": "ERC1967InvalidImplementation",
      "type": "error"
    },
    {
      "inputs": [],
      "name": "ERC1967NonPayable",
      "type": "error"
    },
    {
      "inputs": [],
      "name": "EnforcedPause",
      "type": "error"
    },
    {
      "inputs": [],
      "name": "ExpectedPause",
      "type": "error"
    },
    {
      "inputs": [],
      "name": "FailedCall",
      "type": "error"
    },
    {
      "inputs": [],
      "name": "InvalidInitialization",
      "type": "error"
    },
    {
      "inputs": [],
      "name": "NotInitializing",
      "type": "error"
    },
    {
      "inputs": [],
      "name": "UUPSUnauthorizedCallContext",
      "type": "error"
    },
    {
      "inputs": [
        {
          "internalType": "bytes32",
          "name": "slot",
          "type": "bytes32"
        }
      ],
      "name": "UUPSUnsupportedProxiableUUID",
      "type": "error"
    },
    {
      "anonymous": false,
      "inputs": [
        {
          "indexed": false,
          "internalType": "uint256",
          "name": "totalUsers",
          "type": "uint256"
        },
        {
          "indexed": false,
          "internalType": "uint256",
          "name": "totalImpact",
          "type": "uint256"
        }
      ],
      "name": "EcosystemStateUpdated",
      "type": "event"
    },
    {
      "anonymous": false,
      "inputs": [
        {
          "indexed": true,
          "internalType": "address",
          "name": "trigger",
          "type": "address"
        },
        {
          "indexed": false,
          "internalType": "string",
          "name": "reason",
          "type": "string"
        }
      ],
      "name": "EmergencyTriggered",
      "type": "event"
    },
    {
      "anonymous": false,
      "inputs": [
        {
          "indexed": false,
          "internalType": "uint64",
          "name": "version",
          "type": "uint64"
        }
      ],
      "name": "Initialized",
      "type": "event"
    },
    {
      "anonymous": false,
      "inputs": [
        {
          "indexed": true,
          "internalType": "address",
          "name": "moduleAddress",
          "type": "address"
        },
        {
          "indexed": false,
          "internalType": "bool",
          "name": "status",
          "type": "bool"
        }
      ],
      "name": "ModuleActivated",
      "type": "event"
    },
    {
      "anonymous": false,
      "inputs": [
        {
          "indexed": true,
          "internalType": "address",
          "name": "moduleAddress",
          "type": "address"
        },
        {
          "indexed": false,
          "internalType": "string",
          "name": "moduleName",
          "type": "string"
        },
        {
          "indexed": false,
          "internalType": "uint8",
          "name": "layer",
          "type": "uint8"
        }
      ],
      "name": "ModuleRegistered",
      "type": "event"
    },
    {
      "anonymous": false,
      "inputs": [
        {
          "indexed": false,
          "internalType": "address",
          "name": "account",
          "type": "address"
        }
      ],
      "name": "Paused",
      "type": "event"
    },
    {
      "anonymous": false,
      "inputs": [
        {
          "indexed": true,
          "internalType": "bytes32",
          "name": "role",
          "type": "bytes32"
        },
        {
          "indexed": true,
          "internalType": "bytes32",
          "name": "previousAdminRole",
          "type": "bytes32"
        },
        {
          "indexed": true,
          "internalType": "bytes32",
          "name": "newAdminRole",
          "type": "bytes32"
        }
      ],
      "name": "RoleAdminChanged",
      "type": "event"
    },
    {
      "anonymous": false,
      "inputs": [
        {
          "indexed": true,
          "internalType": "bytes32",
          "name": "role",
          "type": "bytes32"
        },
        {
          "indexed": true,
          "internalType": "address",
          "name": "account",
          "type": "address"
        },
        {
          "indexed": true,
          "internalType": "address",
          "name": "sender",
          "type": "address"
        }
      ],
      "name": "RoleGranted",
      "type": "event"
    },
    {
      "anonymous": false,
      "inputs": [
        {
          "indexed": true,
          "internalType": "bytes32",
          "name": "role",
          "type": "bytes32"
        },
        {
          "indexed": true,
          "internalType": "address",
          "name": "account",
          "type": "address"
        },
        {
          "indexed": true,
          "internalType": "address",
          "name": "sender",
          "type": "address"
        }
      ],
      "name": "RoleRevoked",
      "type": "event"
    },
    {
      "anonymous": false,
      "inputs": [
        {
          "indexed": false,
          "internalType": "address",
          "name": "account",
          "type": "address"
        }
      ],
      "name": "Unpaused",
      "type": "event"
    },
    {
      "anonymous": false,
      "inputs": [
        {
          "indexed": true,
          "internalType": "address",
          "name": "implementation",
          "type": "address"
        }
      ],
      "name": "Upgraded",
      "type": "event"
    },
    {
      "inputs": [],
      "name": "DEFAULT_ADMIN_ROLE",
      "outputs": [
        {
          "internalType": "bytes32",
          "name": "",
          "type": "bytes32"
        }
      ],
      "stateMutability": "view",
      "type": "function"
    },
    {
      "inputs": [],
      "name": "ECOSYSTEM_ADMIN",
      "outputs": [
        {
          "internalType": "bytes32",
          "name": "",
          "type": "bytes32"
        }
      ],
      "stateMutability": "view",
      "type": "function"
    },
    {
      "inputs": [],
      "name": "EMERGENCY_ROLE",
      "outputs": [
        {
          "internalType": "bytes32",
          "name": "",
          "type": "bytes32"
        }
      ],
      "stateMutability": "view",
      "type": "function"
    },
    {
      "inputs": [],
      "name": "MODULE_MANAGER",
      "outputs": [
        {
          "internalType": "bytes32",
          "name": "",
          "type": "bytes32"
        }
      ],
      "stateMutability": "view",
      "type": "function"
    },
    {
      "inputs": [],
      "name": "ORACLE_ROLE",
      "outputs": [
        {
          "internalType": "bytes32",
          "name": "",
          "type": "bytes32"
        }
      ],
      "stateMutability": "view",
      "type": "function"
    },
    {
      "inputs": [],
      "name": "UPGRADE_INTERFACE_VERSION",
      "outputs": [
        {
          "internalType": "string",
          "name": "",
          "type": "string"
        }
      ],
      "stateMutability": "view",
      "type": "function"
    },
    {
      "inputs": [],
      "name": "calculateEcosystemHealth",
      "outputs": [
        {
          "internalType": "uint256",
          "name": "",
          "type": "uint256"
        }
      ],
      "stateMutability": "view",
      "type": "function"
    },
    {
      "inputs": [
        {
          "internalType": "uint8",
          "name": "layer",
          "type": "uint8"
        }
      ],
      "name": "countActiveModulesByLayer",
      "outputs": [
        {
          "internalType": "uint256",
          "name": "",
          "type": "uint256"
        }
      ],
      "stateMutability": "view",
      "type": "function"
    },
    {
      "inputs": [
        {
          "internalType": "address",
          "name": "targetModule",
          "type": "address"
        },
        {
          "internalType": "bytes",
          "name": "data",
          "type": "bytes"
        }
      ],
      "name": "crossModuleCall",
      "outputs": [
        {
          "internalType": "bytes",
          "name": "",
          "type": "bytes"
        }
      ],
      "stateMutability": "nonpayable",
      "type": "function"
    },
    {
      "inputs": [],
      "name": "ecosystemState",
      "outputs": [
        {
          "internalType": "uint256",
          "name": "totalUsers",
          "type": "uint256"
        },
        {
          "internalType": "uint256",
          "name": "totalImpact",
          "type": "uint256"
        },
        {
          "internalType": "uint256",
          "name": "globalReputation",
          "type": "uint256"
        },
        {
          "internalType": "bool",
          "name": "emergencyMode",
          "type": "bool"
        }
      ],
      "stateMutability": "view",
      "type": "function"
    },
    {
      "inputs": [],
      "name": "getEcosystemState",
      "outputs": [
        {
          "components": [
            {
              "internalType": "uint256",
              "name": "totalUsers",
              "type": "uint256"
            },
            {
              "internalType": "uint256",
              "name": "totalImpact",
              "type": "uint256"
            },
            {
              "internalType": "uint256",
              "name": "globalReputation",
              "type": "uint256"
            },
            {
              "internalType": "bool",
              "name": "emergencyMode",
              "type": "bool"
            }
          ],
          "internalType": "struct SolidaryHub.EcosystemState",
          "name": "",
          "type": "tuple"
        }
      ],
      "stateMutability": "view",
      "type": "function"
    },
    {
      "inputs": [
        {
          "internalType": "string",
          "name": "moduleName",
          "type": "string"
        }
      ],
      "name": "getModuleByName",
      "outputs": [
        {
          "internalType": "address",
          "name": "",
          "type": "address"
        }
      ],
      "stateMutability": "view",
      "type": "function"
    },
    {
      "inputs": [
        {
          "internalType": "address",
          "name": "moduleAddress",
          "type": "address"
        }
      ],
      "name": "getModuleInfo",
      "outputs": [
        {
          "components": [
            {
              "internalType": "address",
              "name": "contractAddress",
              "type": "address"
            },
            {
              "internalType": "string",
              "name": "moduleName",
              "type": "string"
            },
            {
              "internalType": "uint8",
              "name": "layer",
              "type": "uint8"
            },
            {
              "internalType": "bool",
              "name": "active",
              "type": "bool"
            },
            {
              "internalType": "uint256",
              "name": "version",
              "type": "uint256"
            }
          ],
          "internalType": "struct SolidaryHub.ModuleInfo",
          "name": "",
          "type": "tuple"
        }
      ],
      "stateMutability": "view",
      "type": "function"
    },
    {
      "inputs": [
        {
          "internalType": "uint8",
          "name": "layer",
          "type": "uint8"
        }
      ],
      "name": "getModulesByLayer",
      "outputs": [
        {
          "internalType": "address[]",
          "name": "",
          "type": "address[]"
        }
      ],
      "stateMutability": "view",
      "type": "function"
    },
    {
      "inputs": [
        {
          "internalType": "bytes32",
          "name": "role",
          "type": "bytes32"
        }
      ],
      "name": "getRoleAdmin",
      "outputs": [
        {
          "internalType": "bytes32",
          "name": "",
          "type": "bytes32"
        }
      ],
      "stateMutability": "view",
      "type": "function"
    },
    {
      "inputs": [
        {
          "internalType": "bytes32",
          "name": "role",
          "type": "bytes32"
        },
        {
          "internalType": "address",
          "name": "account",
          "type": "address"
        }
      ],
      "name": "grantRole",
      "outputs": [],
      "stateMutability": "nonpayable",
      "type": "function"
    },
    {
      "inputs": [
        {
          "internalType": "bytes32",
          "name": "role",
          "type": "bytes32"
        },
        {
          "internalType": "address",
          "name": "account",
          "type": "address"
        }
      ],
      "name": "hasRole",
      "outputs": [
        {
          "internalType": "bool",
          "name": "",
          "type": "bool"
        }
      ],
      "stateMutability": "view",
      "type": "function"
    },
    {
      "inputs": [
        {
          "internalType": "address",
          "name": "initialAdmin",
          "type": "address"
        }
      ],
      "name": "initialize",
      "outputs": [],
      "stateMutability": "nonpayable",
      "type": "function"
    },
    {
      "inputs": [],
      "name": "isEmergencyMode",
      "outputs": [
        {
          "internalType": "bool",
          "name": "",
          "type": "bool"
        }
      ],
      "stateMutability": "view",
      "type": "function"
    },
    {
      "inputs": [
        {
          "internalType": "string",
          "name": "",
          "type": "string"
        }
      ],
      "name": "moduleByName",
      "outputs": [
        {
          "internalType": "address",
          "name": "",
          "type": "address"
        }
      ],
      "stateMutability": "view",
      "type": "function"
    },
    {
      "inputs": [
        {
          "internalType": "address",
          "name": "",
          "type": "address"
        }
      ],
      "name": "modules",
      "outputs": [
        {
          "internalType": "address",
          "name": "contractAddress",
          "type": "address"
        },
        {
          "internalType": "string",
          "name": "moduleName",
          "type": "string"
        },
        {
          "internalType": "uint8",
          "name": "layer",
          "type": "uint8"
        },
        {
          "internalType": "bool",
          "name": "active",
          "type": "bool"
        },
        {
          "internalType": "uint256",
          "name": "version",
          "type": "uint256"
        }
      ],
      "stateMutability": "view",
      "type": "function"
    },
    {
      "inputs": [
        {
          "internalType": "uint8",
          "name": "",
          "type": "uint8"
        },
        {
          "internalType": "uint256",
          "name": "",
          "type": "uint256"
        }
      ],
      "name": "modulesByLayer",
      "outputs": [
        {
          "internalType": "address",
          "name": "",
          "type": "address"
        }
      ],
      "stateMutability": "view",
      "type": "function"
    },
    {
      "inputs": [],
      "name": "paused",
      "outputs": [
        {
          "internalType": "bool",
          "name": "",
          "type": "bool"
        }
      ],
      "stateMutability": "view",
      "type": "function"
    },
    {
      "inputs": [],
      "name": "proxiableUUID",
      "outputs": [
        {
          "internalType": "bytes32",
          "name": "",
          "type": "bytes32"
        }
      ],
      "stateMutability": "view",
      "type": "function"
    },
    {
      "inputs": [
        {
          "internalType": "address",
          "name": "contractAddress",
          "type": "address"
        },
        {
          "internalType": "string",
          "name": "moduleName",
          "type": "string"
        },
        {
          "internalType": "uint8",
          "name": "layer",
          "type": "uint8"
        }
      ],
      "name": "registerModule",
      "outputs": [],
      "stateMutability": "nonpayable",
      "type": "function"
    },
    {
      "inputs": [
        {
          "internalType": "bytes32",
          "name": "role",
          "type": "bytes32"
        },
        {
          "internalType": "address",
          "name": "callerConfirmation",
          "type": "address"
        }
      ],
      "name": "renounceRole",
      "outputs": [],
      "stateMutability": "nonpayable",
      "type": "function"
    },
    {
      "inputs": [],
      "name": "resolveEmergency",
      "outputs": [],
      "stateMutability": "nonpayable",
      "type": "function"
    },
    {
      "inputs": [
        {
          "internalType": "bytes32",
          "name": "role",
          "type": "bytes32"
        },
        {
          "internalType": "address",
          "name": "account",
          "type": "address"
        }
      ],
      "name": "revokeRole",
      "outputs": [],
      "stateMutability": "nonpayable",
      "type": "function"
    },
    {
      "inputs": [
        {
          "internalType": "address",
          "name": "moduleAddress",
          "type": "address"
        },
        {
          "internalType": "bool",
          "name": "active",
          "type": "bool"
        }
      ],
      "name": "setModuleStatus",
      "outputs": [],
      "stateMutability": "nonpayable",
      "type": "function"
    },
    {
      "inputs": [
        {
          "internalType": "bytes4",
          "name": "interfaceId",
          "type": "bytes4"
        }
      ],
      "name": "supportsInterface",
      "outputs": [
        {
          "internalType": "bool",
          "name": "",
          "type": "bool"
        }
      ],
      "stateMutability": "view",
      "type": "function"
    },
    {
      "inputs": [
        {
          "internalType": "string",
          "name": "reason",
          "type": "string"
        }
      ],
      "name": "triggerEmergency",
      "outputs": [],
      "stateMutability": "nonpayable",
      "type": "function"
    },
    {
      "inputs": [
        {
          "internalType": "uint256",
          "name": "newUsers",
          "type": "uint256"
        },
        {
          "internalType": "uint256",
          "name": "newImpact",
          "type": "uint256"
        },
        {
          "internalType": "uint256",
          "name": "newReputation",
          "type": "uint256"
        }
      ],
      "name": "updateEcosystemState",
      "outputs": [],
      "stateMutability": "nonpayable",
      "type": "function"
    },
    {
      "inputs": [
        {
          "internalType": "address",
          "name": "newImplementation",
          "type": "address"
        },
        {
          "internalType": "bytes",
          "name": "data",
          "type": "bytes"
        }
      ],
      "name": "upgradeToAndCall",
      "outputs": [],
      "stateMutability": "payable",
      "type": "function"
    }
  ],
  "bytecode": "0x60a080604052346100ea57306080527ff0c57e16840df040f15088dc2f81fe391c3923bec73e23a9662efc9c229c6a005460ff8160401c166100d9576002600160401b03196001600160401b03821601610073575b60405161228490816100f0823960805181818161114b01526111fb0152f35b6001600160401b0319166001600160401b039081177ff0c57e16840df040f15088dc2f81fe391c3923bec73e23a9662efc9c229c6a005581527fc7f505b2f371ae2175ee4913f4499e1f2633a7b5936321eed1cdaeb6115181d290602090a13880610054565b63f92ee8a960e01b60005260046000fd5b600080fdfe608080604052600436101561001357600080fd5b60003560e01c90816301ffc9a7146118865750806307e2cea51461184b57806315c73afd1461179a578063177cea27146116d457806320a194b81461167e57806320df435914611643578063248a9ca31461160957806327afc10d146115135780632f2ff15d146114c657806336568abe146114805780633a96051b146114445780634f1ef286146111ac57806352d1902d146111305780635303fe03146110f55780635c975abb146110b35780637ec89da914610eaf5780638b40da7d14610e7457806391d1485414610e19578063a217fddf14610dfd578063a8ee49fe14610d71578063ad3cb1cc14610d26578063b48a6a1c14610c9f578063bc70c8ad14610bab578063bd3b1c2014610b88578063be63de5c14610aa5578063c4d66de814610896578063cb7812a6146106ec578063d547741f14610842578063ef56af9414610752578063f13d22c1146106ec578063f6cb70e714610691578063f76026391461028f5763f93305151461018a57600080fd5b3461028a57602036600319011261028a5760043567ffffffffffffffff811161028a576101bb903690600401611ae8565b6101c3611ba9565b6101cb612154565b600160ff197fcd5ed15c6e187e77e9aee88184c21f4f2182ab5827cb3b7e07fbedcd63f033005416177fcd5ed15c6e187e77e9aee88184c21f4f2182ab5827cb3b7e07fbedcd63f03300557f62e78cea01bee320cd4e420270b5ea74000d11b0c9f74754ebdbfc544b05a2586020604051338152a1600160ff1960065416176006557f66ccfeb54dc8c5489e0b2e934b4614efa13773ea8c268902e73af2a67aedc0fa6040516020815280610285339460208301906119e5565b0390a2005b600080fd5b3461028a57606036600319011261028a576102a86118e9565b60243567ffffffffffffffff811161028a576102c8903690600401611ae8565b6044359160ff831680930361028a576001600160a01b03906102e8611c1b565b1691821561064c57600181101580610641575b156105fc578260005260016020526001600160a01b03604060002054166105b75760405161032881611931565b838152602081018381526040820183815260608301600181526080840192600184528760005260016020526001600160a01b038060406000209651161673ffffffffffffffffffffffffffffffffffffffff1986541617855560018501905180519067ffffffffffffffff82116104df576103a38354611a0a565b601f811161056f575b50602090601f831160011461050057918060039796949261041096946000926104f5575b50508160011b9160001990891b1c19161790555b60ff6002870192511660ff1983541617825551151561ff00825491151560081b169061ff001916179055565b51910155806000526000602052604060002091825491680100000000000000008310156104df5761046b837f7bc81df1336b2096bac60ffb66134aa420862f86d7f0bd0c5acf26ab68b611029560016104d496018155611b06565b81549060031b906001600160a01b0388831b921b1916179055604051602081845161049981838589016119c2565b810160028152030190208573ffffffffffffffffffffffffffffffffffffffff198254161790556040519283926040845260408401906119e5565b9060208301520390a2005b634e487b7160e01b600052604160045260246000fd5b015190508c806103d0565b90601f1983169184600052816000209260005b8181106105575750926001928592610410989660039b9a98961061053f575b505050811b0190556103e4565b0151600019838b1b60f8161c191690558c8080610532565b92936020600181928786015181550195019301610513565b836000526020600020601f840160051c810191602085106105ad575b601f0160051c01905b8181106105a157506103ac565b60008155600101610594565b909150819061058b565b60405162461bcd60e51b815260206004820152601960248201527f4d6f64756c6520616c72656164792072656769737465726564000000000000006044820152606490fd5b60405162461bcd60e51b815260206004820152600d60248201527f496e76616c6964206c61796572000000000000000000000000000000000000006044820152606490fd5b5060078111156102fb565b60405162461bcd60e51b815260206004820152601860248201527f496e76616c696420636f6e7472616374206164647265737300000000000000006044820152606490fd5b3461028a57604036600319011261028a576106aa6118d9565b60ff60243591166000526000602052604060002090815481101561028a576106dc6001600160a01b0391602093611b06565b90549060031b1c16604051908152f35b3461028a57602036600319011261028a5760043567ffffffffffffffff811161028a576001600160a01b0361073e602061072b81943690600401611ae8565b81604051938285809451938492016119c2565b810160028152030190205416604051908152f35b3461028a57602036600319011261028a576001600160a01b036107736118e9565b6000608060405161078381611931565b8281526060602082015282604082015282606082015201521660005260016020526001600160a01b036040600020604051906107be82611931565b8281541682526107d060018201611a44565b60208301908152600282015460ff61082860036040870195838516875283606089019560081c16151585520154936080870194855260405197889760208952511660208801525160a0604088015260c08701906119e5565b935116606085015251151560808401525160a08301520390f35b3461028a57604036600319011261028a576108946004356108616118ff565b9061088f61088a8260005260008051602061222f83398151915260205260016040600020015490565b611c8d565b6120ab565b005b3461028a57602036600319011261028a576108af6118e9565b7ff0c57e16840df040f15088dc2f81fe391c3923bec73e23a9662efc9c229c6a005460ff8160401c16159167ffffffffffffffff821680159081610a9d575b6001149081610a93575b159081610a8a575b50610a795767ffffffffffffffff1982166001177ff0c57e16840df040f15088dc2f81fe391c3923bec73e23a9662efc9c229c6a005561097c9183610a3a575b50610949612190565b610951612190565b610959612190565b61096281611ce1565b5061096c81611d8d565b5061097681611e5b565b50611f29565b506000606060405161098d81611915565b828152826020820152826040820152015260006003556000600455600060055560ff19600654166006556109bd57005b68ff0000000000000000197ff0c57e16840df040f15088dc2f81fe391c3923bec73e23a9662efc9c229c6a0054167ff0c57e16840df040f15088dc2f81fe391c3923bec73e23a9662efc9c229c6a00557fc7f505b2f371ae2175ee4913f4499e1f2633a7b5936321eed1cdaeb6115181d2602060405160018152a1005b68ffffffffffffffffff191668010000000000000001177ff0c57e16840df040f15088dc2f81fe391c3923bec73e23a9662efc9c229c6a005583610940565b63f92ee8a960e01b60005260046000fd5b90501584610900565b303b1591506108f8565b8491506108ee565b3461028a57606036600319011261028a573360009081527f0b45fb0a7d123af421db170fce034e3ce3a70e5f1150428004face1400c458f2602052604090205460ff1615610b4f57610af5612154565b7f9431f17ab4ac6e2586da4dcd5f6129aaad0c6385c8471c36e706a6c76f4ae57d6040610b26600435600354611b64565b80600355610b38602435600454611b64565b8060045560443560055582519182526020820152a1005b63e2517d3f60e01b600052336004527f68e79a7bf1e0bc45d0a330c573bc367f9cf464fd326078812f301165fbda4ef160245260446000fd5b3461028a57600036600319011261028a576020610ba3611b87565b604051908152f35b3461028a57602036600319011261028a57610bc46118d9565b60ff60009116815280602052604081206040518082602082945493848152019085526020852092855b818110610c7d575050610c029250038261194d565b815b8151811015610c725760006001600160a01b0360208360051b85010151168152600160205260ff600260408320015460081c16610c45575b50600101610c04565b9092906000198214610c5e575060018091019290610c3c565b634e487b7160e01b81526011600452602490fd5b602083604051908152f35b84546001600160a01b0316835260019485019486945060209093019201610bed565b3461028a57600036600319011261028a5760006060604051610cc081611915565b82815282602082015282604082015201526080604051610cdf81611915565b60035490818152600454602082019081526005549060408301918252606060ff60065416930192151583526040519384525160208401525160408301525115156060820152f35b3461028a57600036600319011261028a57610d6d6040805190610d49818361194d565b60058252640352e302e360dc1b6020830152519182916020835260208301906119e5565b0390f35b3461028a57602036600319011261028a576001600160a01b03610d926118e9565b16600052600160205260406000206001600160a01b03815416610db760018301611a44565b916003600282015491015460ff610de0604051958695865260a0602087015260a08601906119e5565b92818116604086015260081c161515606084015260808301520390f35b3461028a57600036600319011261028a57602060405160008152f35b3461028a57604036600319011261028a57610e326118ff565b60043560005260008051602061222f8339815191526020526001600160a01b0360406000209116600052602052602060ff604060002054166040519015158152f35b3461028a57600036600319011261028a5760206040517f19f9d473423263adc46f463ef6e0a4e0676dffd38d23d5d00cb7717a48218bc18152f35b3461028a57604036600319011261028a57610ec86118e9565b6024359067ffffffffffffffff821161028a573660238301121561028a5781600401359067ffffffffffffffff821161028a57366024838501011161028a576001600160a01b038116600052600160205260ff60026040600020015460081c161561106e573360009081527facb9f2b6bee36d95fbaa8a4d4acde8cfc91faafe3343006738fb398b99d588d7602052604090205460ff168015611036575b15610ff157602460008094848295604051948593018337810182815203925af1610f8e611b34565b9015610fac57610d6d906040519182916020835260208301906119e5565b60405162461bcd60e51b815260206004820152601860248201527f43726f73732d6d6f64756c652063616c6c206661696c656400000000000000006044820152606490fd5b60405162461bcd60e51b815260206004820152601760248201527f556e617574686f72697a65642063726f73732d63616c6c0000000000000000006044820152606490fd5b503360009081527fc1be15c09ab084a6af728bdd976467f912929fd0717b83712f83442cfba58819602052604090205460ff16610f66565b60405162461bcd60e51b815260206004820152601860248201527f546172676574206d6f64756c65206e6f742061637469766500000000000000006044820152606490fd5b3461028a57600036600319011261028a57602060ff7fcd5ed15c6e187e77e9aee88184c21f4f2182ab5827cb3b7e07fbedcd63f0330054166040519015158152f35b3461028a57600036600319011261028a5760206040517fa49b0dc1e696db729b090931047acb0b49e21c13be3be601c57eb24eaf8760c08152f35b3461028a57600036600319011261028a576001600160a01b037f000000000000000000000000000000000000000000000000000000000000000016300361119b5760206040517f360894a13ba1a3210667c828492db98dca3e2076cc3735a920a3ca505d382bbc8152f35b63703e46dd60e11b60005260046000fd5b604036600319011261028a576111c06118e9565b60243567ffffffffffffffff811161028a573660238201121561028a576111f190369060248160040135910161198b565b6001600160a01b037f00000000000000000000000000000000000000000000000000000000000000001680301490811561140f575b5061119b573360009081527fb7db2dd08fcb62d0c9e08c51941cae53c267786a0b75803fb7960902fc8ef97d602052604090205460ff16156113f5576040516352d1902d60e01b81526001600160a01b0383169290602081600481875afa600091816113c1575b506112a75783634c9c8ce360e01b60005260045260246000fd5b807f360894a13ba1a3210667c828492db98dca3e2076cc3735a920a3ca505d382bbc8592036113ad5750813b15611399578073ffffffffffffffffffffffffffffffffffffffff197f360894a13ba1a3210667c828492db98dca3e2076cc3735a920a3ca505d382bbc5416177f360894a13ba1a3210667c828492db98dca3e2076cc3735a920a3ca505d382bbc557fbc7cd75a20ee27fd9adebab32041f755214dbc6bffa90cc0225b39da2e5c2d3b600080a281511561137f5760008083602061089495519101845af4611379611b34565b916121d0565b50503461138857005b63b398979f60e01b60005260046000fd5b634c9c8ce360e01b60005260045260246000fd5b632a87526960e21b60005260045260246000fd5b9091506020813d6020116113ed575b816113dd6020938361194d565b8101031261028a5751908561128d565b3d91506113d0565b63e2517d3f60e01b60005233600452600060245260446000fd5b90506001600160a01b037f360894a13ba1a3210667c828492db98dca3e2076cc3735a920a3ca505d382bbc5416141583611226565b3461028a57600036600319011261028a57608060035460045460055460ff60065416916040519384526020840152604083015215156060820152f35b3461028a57604036600319011261028a576114996118ff565b336001600160a01b038216036114b557610894906004356120ab565b63334bd91960e11b60005260046000fd5b3461028a57604036600319011261028a576108946004356114e56118ff565b9061150e61088a8260005260008051602061222f83398151915260205260016040600020015490565b611ff7565b3461028a57604036600319011261028a5761152c6118e9565b602435908115159081830361028a576001600160a01b039061154c611c1b565b16918260005260016020526001600160a01b0360406000205416156115c4577fce65be90b9d6efc1aa61f14de2ac9cc2dd021ae4939056b7db2713270e4c4993916115bb602092856000526001845260026040600020019061ff00825491151560081b169061ff001916179055565b604051908152a2005b60405162461bcd60e51b815260206004820152601560248201527f4d6f64756c65206e6f74207265676973746572656400000000000000000000006044820152606490fd5b3461028a57602036600319011261028a576020610ba360043560005260008051602061222f83398151915260205260016040600020015490565b3461028a57600036600319011261028a5760206040517fbf233dd2aafeb4d50879c4aa5c81e96d92f6e6945c906a58f9f2d1c1631b4b268152f35b3461028a57600036600319011261028a5760ff6006541680156116a9575b6020906040519015158152f35b507fcd5ed15c6e187e77e9aee88184c21f4f2182ab5827cb3b7e07fbedcd63f033005460ff1661169c565b3461028a57602036600319011261028a5760ff6116ef6118d9565b16600052600060205260406000206040518060208354918281520190819360005260206000209060005b81811061177b575050508161172f91038261194d565b6040519182916020830190602084525180915260408301919060005b818110611759575050500390f35b82516001600160a01b031684528594506020938401939092019160010161174b565b82546001600160a01b0316845260209093019260019283019201611719565b3461028a57600036600319011261028a576117b3611ba9565b7fcd5ed15c6e187e77e9aee88184c21f4f2182ab5827cb3b7e07fbedcd63f033005460ff81161561183a5760ff19167fcd5ed15c6e187e77e9aee88184c21f4f2182ab5827cb3b7e07fbedcd63f03300557f5db9ee0a495bf2e6ff9c91a7834c1ba4fdd244a5e8aa4e537bd38aeae4b073aa6020604051338152a16006805460ff19169055005b638dfc202b60e01b60005260046000fd5b3461028a57600036600319011261028a5760206040517f68e79a7bf1e0bc45d0a330c573bc367f9cf464fd326078812f301165fbda4ef18152f35b3461028a57602036600319011261028a576004359063ffffffff60e01b821680920361028a57602091637965db0b60e01b81149081156118c8575b5015158152f35b6301ffc9a760e01b149050836118c1565b6004359060ff8216820361028a57565b600435906001600160a01b038216820361028a57565b602435906001600160a01b038216820361028a57565b6080810190811067ffffffffffffffff8211176104df57604052565b60a0810190811067ffffffffffffffff8211176104df57604052565b90601f8019910116810190811067ffffffffffffffff8211176104df57604052565b67ffffffffffffffff81116104df57601f01601f191660200190565b9291926119978261196f565b916119a5604051938461194d565b82948184528183011161028a578281602093846000960137010152565b60005b8381106119d55750506000910152565b81810151838201526020016119c5565b906020916119fe815180928185528580860191016119c2565b601f01601f1916010190565b90600182811c92168015611a3a575b6020831014611a2457565b634e487b7160e01b600052602260045260246000fd5b91607f1691611a19565b9060405191826000825492611a5884611a0a565b8084529360018116908115611ac65750600114611a7f575b50611a7d9250038361194d565b565b90506000929192526020600020906000915b818310611aaa575050906020611a7d9282010138611a70565b6020919350806001915483858901015201910190918492611a91565b905060209250611a7d94915060ff191682840152151560051b82010138611a70565b9080601f8301121561028a57816020611b039335910161198b565b90565b8054821015611b1e5760005260206000200190600090565b634e487b7160e01b600052603260045260246000fd5b3d15611b5f573d90611b458261196f565b91611b53604051938461194d565b82523d6000602084013e565b606090565b91908201809211611b7157565b634e487b7160e01b600052601160045260246000fd5b6003548015611ba357611b9f60045460055490611b64565b0490565b50600090565b3360009081527f762c7c328dd70a077c65c77b60e4c38eed3d2f6aa056d4d0fa114aeff8234b56602052604090205460ff1615611be257565b63e2517d3f60e01b600052336004527fbf233dd2aafeb4d50879c4aa5c81e96d92f6e6945c906a58f9f2d1c1631b4b2660245260446000fd5b3360009081527facb9f2b6bee36d95fbaa8a4d4acde8cfc91faafe3343006738fb398b99d588d7602052604090205460ff1615611c5457565b63e2517d3f60e01b600052336004527f19f9d473423263adc46f463ef6e0a4e0676dffd38d23d5d00cb7717a48218bc160245260446000fd5b8060005260008051602061222f83398151915260205260406000206001600160a01b03331660005260205260ff6040600020541615611cc95750565b63e2517d3f60e01b6000523360045260245260446000fd5b6001600160a01b03811660009081527fb7db2dd08fcb62d0c9e08c51941cae53c267786a0b75803fb7960902fc8ef97d602052604090205460ff16611ba3576001600160a01b031660008181527fb7db2dd08fcb62d0c9e08c51941cae53c267786a0b75803fb7960902fc8ef97d60205260408120805460ff191660011790553391907f2f8788117e7eff1d82e926ec794901d17c78024a50270940304540a733656f0d8180a4600190565b6001600160a01b03811660009081527fc1be15c09ab084a6af728bdd976467f912929fd0717b83712f83442cfba58819602052604090205460ff16611ba3576001600160a01b031660008181527fc1be15c09ab084a6af728bdd976467f912929fd0717b83712f83442cfba5881960205260408120805460ff191660011790553391907fa49b0dc1e696db729b090931047acb0b49e21c13be3be601c57eb24eaf8760c0907f2f8788117e7eff1d82e926ec794901d17c78024a50270940304540a733656f0d9080a4600190565b6001600160a01b03811660009081527facb9f2b6bee36d95fbaa8a4d4acde8cfc91faafe3343006738fb398b99d588d7602052604090205460ff16611ba3576001600160a01b031660008181527facb9f2b6bee36d95fbaa8a4d4acde8cfc91faafe3343006738fb398b99d588d760205260408120805460ff191660011790553391907f19f9d473423263adc46f463ef6e0a4e0676dffd38d23d5d00cb7717a48218bc1907f2f8788117e7eff1d82e926ec794901d17c78024a50270940304540a733656f0d9080a4600190565b6001600160a01b03811660009081527f762c7c328dd70a077c65c77b60e4c38eed3d2f6aa056d4d0fa114aeff8234b56602052604090205460ff16611ba3576001600160a01b031660008181527f762c7c328dd70a077c65c77b60e4c38eed3d2f6aa056d4d0fa114aeff8234b5660205260408120805460ff191660011790553391907fbf233dd2aafeb4d50879c4aa5c81e96d92f6e6945c906a58f9f2d1c1631b4b26907f2f8788117e7eff1d82e926ec794901d17c78024a50270940304540a733656f0d9080a4600190565b8060005260008051602061222f83398151915260205260406000206001600160a01b03831660005260205260ff60406000205416156000146120a4578060005260008051602061222f83398151915260205260406000206001600160a01b0383166000526020526040600020600160ff198254161790556001600160a01b03339216907f2f8788117e7eff1d82e926ec794901d17c78024a50270940304540a733656f0d600080a4600190565b5050600090565b8060005260008051602061222f83398151915260205260406000206001600160a01b03831660005260205260ff604060002054166000146120a4578060005260008051602061222f83398151915260205260406000206001600160a01b038316600052602052604060002060ff1981541690556001600160a01b03339216907ff6391f5c32d9c69d2a47ea670b442974b53935d1edc7fd64eb21e047a839171b600080a4600190565b60ff7fcd5ed15c6e187e77e9aee88184c21f4f2182ab5827cb3b7e07fbedcd63f03300541661217f57565b63d93c066560e01b60005260046000fd5b60ff7ff0c57e16840df040f15088dc2f81fe391c3923bec73e23a9662efc9c229c6a005460401c16156121bf57565b631afcd79f60e31b60005260046000fd5b906121f657508051156121e557602081519101fd5b63d6bda27560e01b60005260046000fd5b81511580612225575b612207575090565b6001600160a01b0390639996b31560e01b6000521660045260246000fd5b50803b156121ff56fe02dd7bc7dec4dceedda775e58dd541e08a116c6c53815c0bd028192f7b626800a2646970667358221220ae2a2e7e2be0502008af11238f28493dbf0ed3f27aabfa1ba54d90f890d4b15764736f6c634300081d0033",
  "linkReferences": {},
  "deployedLinkReferences": {}
}