{
  "_format": "hh-sol-artifact-1",
  "contractName": "SolidaryTrustManager",
  "sourceName": "contracts/governance_consensus/SolidaryTrustManager.sol",
  "abi": [
    {
      "inputs": [],
      "stateMutability": "nonpayable",
      "type": "constructor"
    },
    {
      "inputs": [
        {
          "internalType": "address",
          "name": "target",
          "type": "address"
        }
      ],
      "name": "AddressEmptyCode",
      "type": "error"
    },
    {
      "inputs": [
        {
          "internalType": "address",
          "name": "implementation",
          "type": "address"
        }
      ],
      "name": "ERC1967InvalidImplementation",
      "type": "error"
    },
    {
      "inputs": [],
      "name": "ERC1967NonPayable",
      "type": "error"
    },
    {
      "inputs": [],
      "name": "FailedCall",
      "type": "error"
    },
    {
      "inputs": [],
      "name": "InvalidInitialization",
      "type": "error"
    },
    {
      "inputs": [],
      "name": "NotInitializing",
      "type": "error"
    },
    {
      "inputs": [
        {
          "internalType": "address",
          "name": "owner",
          "type": "address"
        }
      ],
      "name": "OwnableInvalidOwner",
      "type": "error"
    },
    {
      "inputs": [
        {
          "internalType": "address",
          "name": "account",
          "type": "address"
        }
      ],
      "name": "OwnableUnauthorizedAccount",
      "type": "error"
    },
    {
      "inputs": [],
      "name": "UUPSUnauthorizedCallContext",
      "type": "error"
    },
    {
      "inputs": [
        {
          "internalType": "bytes32",
          "name": "slot",
          "type": "bytes32"
        }
      ],
      "name": "UUPSUnsupportedProxiableUUID",
      "type": "error"
    },
    {
      "anonymous": false,
      "inputs": [
        {
          "indexed": true,
          "internalType": "address",
          "name": "module",
          "type": "address"
        },
        {
          "indexed": false,
          "internalType": "string",
          "name": "name",
          "type": "string"
        },
        {
          "indexed": false,
          "internalType": "uint256",
          "name": "validUntil",
          "type": "uint256"
        }
      ],
      "name": "CertificateIssued",
      "type": "event"
    },
    {
      "anonymous": false,
      "inputs": [
        {
          "indexed": true,
          "internalType": "address",
          "name": "module",
          "type": "address"
        }
      ],
      "name": "CertificateRevoked",
      "type": "event"
    },
    {
      "anonymous": false,
      "inputs": [
        {
          "indexed": false,
          "internalType": "uint64",
          "name": "version",
          "type": "uint64"
        }
      ],
      "name": "Initialized",
      "type": "event"
    },
    {
      "anonymous": false,
      "inputs": [
        {
          "indexed": true,
          "internalType": "address",
          "name": "previousOwner",
          "type": "address"
        },
        {
          "indexed": true,
          "internalType": "address",
          "name": "newOwner",
          "type": "address"
        }
      ],
      "name": "OwnershipTransferred",
      "type": "event"
    },
    {
      "anonymous": false,
      "inputs": [
        {
          "indexed": true,
          "internalType": "bytes32",
          "name": "policyId",
          "type": "bytes32"
        },
        {
          "indexed": false,
          "internalType": "string",
          "name": "description",
          "type": "string"
        }
      ],
      "name": "PolicyAdded",
      "type": "event"
    },
    {
      "anonymous": false,
      "inputs": [
        {
          "indexed": true,
          "internalType": "bytes32",
          "name": "policyId",
          "type": "bytes32"
        }
      ],
      "name": "PolicyRevoked",
      "type": "event"
    },
    {
      "anonymous": false,
      "inputs": [
        {
          "indexed": true,
          "internalType": "address",
          "name": "implementation",
          "type": "address"
        }
      ],
      "name": "Upgraded",
      "type": "event"
    },
    {
      "inputs": [],
      "name": "UPGRADE_INTERFACE_VERSION",
      "outputs": [
        {
          "internalType": "string",
          "name": "",
          "type": "string"
        }
      ],
      "stateMutability": "view",
      "type": "function"
    },
    {
      "inputs": [
        {
          "internalType": "string",
          "name": "description",
          "type": "string"
        }
      ],
      "name": "addPolicy",
      "outputs": [
        {
          "internalType": "bytes32",
          "name": "",
          "type": "bytes32"
        }
      ],
      "stateMutability": "nonpayable",
      "type": "function"
    },
    {
      "inputs": [
        {
          "internalType": "address",
          "name": "",
          "type": "address"
        }
      ],
      "name": "certificates",
      "outputs": [
        {
          "internalType": "string",
          "name": "name",
          "type": "string"
        },
        {
          "internalType": "address",
          "name": "module",
          "type": "address"
        },
        {
          "internalType": "uint256",
          "name": "issuedAt",
          "type": "uint256"
        },
        {
          "internalType": "uint256",
          "name": "validUntil",
          "type": "uint256"
        },
        {
          "internalType": "bool",
          "name": "revoked",
          "type": "bool"
        }
      ],
      "stateMutability": "view",
      "type": "function"
    },
    {
      "inputs": [
        {
          "internalType": "address",
          "name": "initialOwner",
          "type": "address"
        }
      ],
      "name": "initialize",
      "outputs": [],
      "stateMutability": "nonpayable",
      "type": "function"
    },
    {
      "inputs": [
        {
          "internalType": "bytes32",
          "name": "policyId",
          "type": "bytes32"
        }
      ],
      "name": "isPolicyActive",
      "outputs": [
        {
          "internalType": "bool",
          "name": "",
          "type": "bool"
        }
      ],
      "stateMutability": "view",
      "type": "function"
    },
    {
      "inputs": [
        {
          "internalType": "address",
          "name": "module",
          "type": "address"
        },
        {
          "internalType": "string",
          "name": "name",
          "type": "string"
        },
        {
          "internalType": "uint256",
          "name": "validityDuration",
          "type": "uint256"
        }
      ],
      "name": "issueCertificate",
      "outputs": [],
      "stateMutability": "nonpayable",
      "type": "function"
    },
    {
      "inputs": [],
      "name": "owner",
      "outputs": [
        {
          "internalType": "address",
          "name": "",
          "type": "address"
        }
      ],
      "stateMutability": "view",
      "type": "function"
    },
    {
      "inputs": [
        {
          "internalType": "bytes32",
          "name": "",
          "type": "bytes32"
        }
      ],
      "name": "policies",
      "outputs": [
        {
          "internalType": "string",
          "name": "description",
          "type": "string"
        },
        {
          "internalType": "uint256",
          "name": "createdAt",
          "type": "uint256"
        },
        {
          "internalType": "bool",
          "name": "active",
          "type": "bool"
        }
      ],
      "stateMutability": "view",
      "type": "function"
    },
    {
      "inputs": [],
      "name": "proxiableUUID",
      "outputs": [
        {
          "internalType": "bytes32",
          "name": "",
          "type": "bytes32"
        }
      ],
      "stateMutability": "view",
      "type": "function"
    },
    {
      "inputs": [],
      "name": "renounceOwnership",
      "outputs": [],
      "stateMutability": "nonpayable",
      "type": "function"
    },
    {
      "inputs": [
        {
          "internalType": "address",
          "name": "module",
          "type": "address"
        }
      ],
      "name": "revokeCertificate",
      "outputs": [],
      "stateMutability": "nonpayable",
      "type": "function"
    },
    {
      "inputs": [
        {
          "internalType": "bytes32",
          "name": "policyId",
          "type": "bytes32"
        }
      ],
      "name": "revokePolicy",
      "outputs": [],
      "stateMutability": "nonpayable",
      "type": "function"
    },
    {
      "inputs": [
        {
          "internalType": "address",
          "name": "newOwner",
          "type": "address"
        }
      ],
      "name": "transferOwnership",
      "outputs": [],
      "stateMutability": "nonpayable",
      "type": "function"
    },
    {
      "inputs": [
        {
          "internalType": "address",
          "name": "newImplementation",
          "type": "address"
        },
        {
          "internalType": "bytes",
          "name": "data",
          "type": "bytes"
        }
      ],
      "name": "upgradeToAndCall",
      "outputs": [],
      "stateMutability": "payable",
      "type": "function"
    },
    {
      "inputs": [
        {
          "internalType": "address",
          "name": "module",
          "type": "address"
        }
      ],
      "name": "validateCertificate",
      "outputs": [
        {
          "internalType": "bool",
          "name": "",
          "type": "bool"
        }
      ],
      "stateMutability": "view",
      "type": "function"
    }
  ],
  "bytecode": "0x60a080604052346100ea57306080527ff0c57e16840df040f15088dc2f81fe391c3923bec73e23a9662efc9c229c6a005460ff8160401c166100d9576002600160401b03196001600160401b03821601610073575b6040516112f190816100f08239608051818181610beb0152610c9b0152f35b6001600160401b0319166001600160401b039081177ff0c57e16840df040f15088dc2f81fe391c3923bec73e23a9662efc9c229c6a005581527fc7f505b2f371ae2175ee4913f4499e1f2633a7b5936321eed1cdaeb6115181d290602090a13880610054565b63f92ee8a960e01b60005260046000fd5b600080fdfe6080604052600436101561001257600080fd5b60003560e01c806216e52614610eb65780634f1ef28614610c4c57806352d1902d14610bd05780635f893bfa14610afe578063704b3eb814610839578063715018a6146107a05780638da5cb5b1461075a5780639459e1b7146104eb57806394b9d1d9146104b7578063ad3cb1cc1461046c578063c4d66de8146102bb578063cf1a7eee1461020b578063ddbfd8ef146101ab578063eb670690146100f05763f2fde38b146100c057600080fd5b346100eb5760203660031901126100eb576100e96100dc610f44565b6100e46111d5565b61112f565b005b600080fd5b346100eb5760203660031901126100eb5760043561010c6111d5565b80600052600160205260ff600260406000200154161561016657806000526001602052600260406000200160ff1981541690557fd45436e83f43338af1c71ed2b0f4ea7732056d83af449cfa6ffcac14ac141726600080a2005b60405162461bcd60e51b815260206004820152601460248201527f4e6f726d61206e6f6e20657374206163746976610000000000000000000000006044820152606490fd5b346100eb5760203660031901126100eb5760043560005260016020526101fa60406000206101d881610fd2565b9060ff6002600183015492015416604051938493606085526060850190611099565b916020840152151560408301520390f35b346100eb5760203660031901126100eb576001600160a01b0361022c610f44565b166000526000602052602060406000206040519061024982610f94565b61025281610fd2565b82526001600160a01b0360018201541680848401526002820154604084015260ff6004600384015493846060870152015416159260808415910152151591826102b3575b50816102a8575b506040519015158152f35b90504211158261029d565b915083610296565b346100eb5760203660031901126100eb576102d4610f44565b7ff0c57e16840df040f15088dc2f81fe391c3923bec73e23a9662efc9c229c6a005460ff8160401c16159167ffffffffffffffff821680159081610464575b600114908161045a575b159081610451575b506104405767ffffffffffffffff1982166001177ff0c57e16840df040f15088dc2f81fe391c3923bec73e23a9662efc9c229c6a00556103769183610401575b5061036e61121d565b6100e461121d565b61037e61121d565b61038457005b68ff0000000000000000197ff0c57e16840df040f15088dc2f81fe391c3923bec73e23a9662efc9c229c6a0054167ff0c57e16840df040f15088dc2f81fe391c3923bec73e23a9662efc9c229c6a00557fc7f505b2f371ae2175ee4913f4499e1f2633a7b5936321eed1cdaeb6115181d2602060405160018152a1005b68ffffffffffffffffff191668010000000000000001177ff0c57e16840df040f15088dc2f81fe391c3923bec73e23a9662efc9c229c6a005583610365565b63f92ee8a960e01b60005260046000fd5b90501584610325565b303b15915061031d565b849150610313565b346100eb5760003660031901126100eb576104b3604080519061048f8183610fb0565b60058252640352e302e360dc1b602083015251918291602083526020830190611099565b0390f35b346100eb5760203660031901126100eb576004356000526001602052602060ff600260406000200154166040519015158152f35b346100eb5760203660031901126100eb5760043567ffffffffffffffff81116100eb5761051c903690600401611111565b6105246111d5565b60405160208101906105556020808386516105428188858b01611076565b8101428382015203018084520182610fb0565b5190206040516060810181811067ffffffffffffffff82111761074457604052828152602081014281526040820190600182528360005260016020526040600020925180519067ffffffffffffffff8211610744576105b48554610f5a565b601f81116106fc575b509160209693918695938890601f8311600114610666579361063e938361065097946002947f8c605db3db49f9b0696718e3af0f1493cd722dd60893aa3c0d7bdf37027561829a9860009261065b575b50508160011b916000199060031b1c19161784555b51600184015551151591019060ff801983541691151516179055565b60405191829187835287830190611099565b0390a2604051908152f35b015190508d8061060d565b90601f1983169186600052816000209260005b8181106106e25750846002947f8c605db3db49f9b0696718e3af0f1493cd722dd60893aa3c0d7bdf37027561829a989461063e98946106509b98600195106106c9575b505050811b018455610622565b015160001960f88460031b161c191690558d80806106bc565b8284015185558b9a50600190940193928c01928c01610679565b856000526020600020601f840160051c8101916020851061073a575b601f0160051c01905b81811061072e57506105bd565b60008155600101610721565b9091508190610718565b634e487b7160e01b600052604160045260246000fd5b346100eb5760003660031901126100eb5760206001600160a01b037f9016d09d72d40fdae2fd8ceac6b6234c7706214fd39c1cd1e609a0528c1993005416604051908152f35b346100eb5760003660031901126100eb576107b96111d5565b60006001600160a01b037f9016d09d72d40fdae2fd8ceac6b6234c7706214fd39c1cd1e609a0528c199300546001600160a01b031981167f9016d09d72d40fdae2fd8ceac6b6234c7706214fd39c1cd1e609a0528c19930055167f8be0079c531659141344cd1fd0a4f28419497f9722a3daafe3b4186f6b6457e08280a3005b346100eb5760603660031901126100eb57610852610f44565b60243567ffffffffffffffff81116100eb5761087a6001600160a01b03913690600401611111565b916108836111d5565b16908115610ab9576044354201804211610aa3576040516108a381610f94565b828152602081018481526040820142815260608301908482526080840192600084528760005260006020526040600020945180519067ffffffffffffffff8211610744576108f18754610f5a565b601f8111610a5b575b50602090601f83116001146109c45793600493836109ae9a989461099a98947f7cfe81bfb9e8d3dcb7ad648448aa616885521676a3e99ed538a415d60e19a4799d9b986000926109b9575b50508160011b916000199060031b1c19161786555b6001600160a01b03600187019151166001600160a01b031982541617905551600285015551600384015551151591019060ff801983541691151516179055565b604051928392604084526040840190611099565b9060208301520390a2005b015190508e80610945565b90601f1983169188600052816000209260005b818110610a4357508461099a98947f7cfe81bfb9e8d3dcb7ad648448aa616885521676a3e99ed538a415d60e19a4799d9b9894600498946109ae9e9c9860019510610a2a575b505050811b01865561095a565b015160001960f88460031b161c191690558e8080610a1d565b929360206001819287860151815501950193016109d7565b876000526020600020601f840160051c81019160208510610a99575b601f0160051c01905b818110610a8d57506108fa565b60008155600101610a80565b9091508190610a77565b634e487b7160e01b600052601160045260246000fd5b60405162461bcd60e51b815260206004820152601d60248201527f4d6f64756c6f206e6f6e20706f74657374206573736520696e616e69730000006044820152606490fd5b346100eb5760203660031901126100eb576001600160a01b03610b1f610f44565b610b276111d5565b168060005260006020526001600160a01b036001604060002001541615610b8b578060005260006020526004604060002001600160ff198254161790557f1572544b0385aedb556974d7757e2ca8049d2da99a9a5209fa9781c74d5f82c8600080a2005b60405162461bcd60e51b815260206004820152601960248201527f43657274696669636174756d206e6f6e20696e76656e74756d000000000000006044820152606490fd5b346100eb5760003660031901126100eb576001600160a01b037f0000000000000000000000000000000000000000000000000000000000000000163003610c3b5760206040517f360894a13ba1a3210667c828492db98dca3e2076cc3735a920a3ca505d382bbc8152f35b63703e46dd60e11b60005260046000fd5b60403660031901126100eb57610c60610f44565b60243567ffffffffffffffff81116100eb57366023820112156100eb57610c919036906024816004013591016110da565b6001600160a01b037f000000000000000000000000000000000000000000000000000000000000000016803014908115610e81575b50610c3b57610cd36111d5565b6040516352d1902d60e01b81526001600160a01b0383169290602081600481875afa60009181610e4d575b50610d185783634c9c8ce360e01b60005260045260246000fd5b807f360894a13ba1a3210667c828492db98dca3e2076cc3735a920a3ca505d382bbc859203610e395750813b15610e2557806001600160a01b03197f360894a13ba1a3210667c828492db98dca3e2076cc3735a920a3ca505d382bbc5416177f360894a13ba1a3210667c828492db98dca3e2076cc3735a920a3ca505d382bbc557fbc7cd75a20ee27fd9adebab32041f755214dbc6bffa90cc0225b39da2e5c2d3b600080a2815115610e0b576000808360206100e995519101845af43d15610e03573d91610de6836110be565b92610df46040519485610fb0565b83523d6000602085013e61125d565b60609161125d565b505034610e1457005b63b398979f60e01b60005260046000fd5b634c9c8ce360e01b60005260045260246000fd5b632a87526960e21b60005260045260246000fd5b9091506020813d602011610e79575b81610e6960209383610fb0565b810103126100eb57519085610cfe565b3d9150610e5c565b90506001600160a01b037f360894a13ba1a3210667c828492db98dca3e2076cc3735a920a3ca505d382bbc5416141583610cc6565b346100eb5760203660031901126100eb576001600160a01b03610ed7610f44565b166000526000602052610f296040600020610ef181610fd2565b906001600160a01b036001820154169060028101549060ff60046003830154920154169160405195869560a0875260a0870190611099565b93602086015260408501526060840152151560808301520390f35b600435906001600160a01b03821682036100eb57565b90600182811c92168015610f8a575b6020831014610f7457565b634e487b7160e01b600052602260045260246000fd5b91607f1691610f69565b60a0810190811067ffffffffffffffff82111761074457604052565b90601f8019910116810190811067ffffffffffffffff82111761074457604052565b9060405191826000825492610fe684610f5a565b8084529360018116908115611054575060011461100d575b5061100b92500383610fb0565b565b90506000929192526020600020906000915b81831061103857505090602061100b9282010138610ffe565b602091935080600191548385890101520191019091849261101f565b90506020925061100b94915060ff191682840152151560051b82010138610ffe565b60005b8381106110895750506000910152565b8181015183820152602001611079565b906020916110b281518092818552858086019101611076565b601f01601f1916010190565b67ffffffffffffffff811161074457601f01601f191660200190565b9291926110e6826110be565b916110f46040519384610fb0565b8294818452818301116100eb578281602093846000960137010152565b9080601f830112156100eb5781602061112c933591016110da565b90565b6001600160a01b031680156111bf576001600160a01b037f9016d09d72d40fdae2fd8ceac6b6234c7706214fd39c1cd1e609a0528c19930054826001600160a01b03198216177f9016d09d72d40fdae2fd8ceac6b6234c7706214fd39c1cd1e609a0528c19930055167f8be0079c531659141344cd1fd0a4f28419497f9722a3daafe3b4186f6b6457e0600080a3565b631e4fbdf760e01b600052600060045260246000fd5b6001600160a01b037f9016d09d72d40fdae2fd8ceac6b6234c7706214fd39c1cd1e609a0528c1993005416330361120857565b63118cdaa760e01b6000523360045260246000fd5b60ff7ff0c57e16840df040f15088dc2f81fe391c3923bec73e23a9662efc9c229c6a005460401c161561124c57565b631afcd79f60e31b60005260046000fd5b90611283575080511561127257602081519101fd5b63d6bda27560e01b60005260046000fd5b815115806112b2575b611294575090565b6001600160a01b0390639996b31560e01b6000521660045260246000fd5b50803b1561128c56fea26469706673582212204c853885c690aae7515a6a0cd8900d5fee11ea592fc36daa2f085be4744e704264736f6c634300081d0033",
  "linkReferences": {},
  "deployedLinkReferences": {}
}