{
  "_format": "hh-sol-artifact-1",
  "contractName": "OraculumCaritatis",
  "sourceName": "contracts/core_justice/OraculumCaritatis.sol",
  "abi": [
    {
      "inputs": [],
      "stateMutability": "nonpayable",
      "type": "constructor"
    },
    {
      "inputs": [],
      "name": "AccessControlBadConfirmation",
      "type": "error"
    },
    {
      "inputs": [
        {
          "internalType": "address",
          "name": "account",
          "type": "address"
        },
        {
          "internalType": "bytes32",
          "name": "neededRole",
          "type": "bytes32"
        }
      ],
      "name": "AccessControlUnauthorizedAccount",
      "type": "error"
    },
    {
      "inputs": [
        {
          "internalType": "address",
          "name": "target",
          "type": "address"
        }
      ],
      "name": "AddressEmptyCode",
      "type": "error"
    },
    {
      "inputs": [
        {
          "internalType": "address",
          "name": "implementation",
          "type": "address"
        }
      ],
      "name": "ERC1967InvalidImplementation",
      "type": "error"
    },
    {
      "inputs": [],
      "name": "ERC1967NonPayable",
      "type": "error"
    },
    {
      "inputs": [],
      "name": "FailedCall",
      "type": "error"
    },
    {
      "inputs": [],
      "name": "InvalidInitialization",
      "type": "error"
    },
    {
      "inputs": [],
      "name": "NotInitializing",
      "type": "error"
    },
    {
      "inputs": [],
      "name": "UUPSUnauthorizedCallContext",
      "type": "error"
    },
    {
      "inputs": [
        {
          "internalType": "bytes32",
          "name": "slot",
          "type": "bytes32"
        }
      ],
      "name": "UUPSUnsupportedProxiableUUID",
      "type": "error"
    },
    {
      "anonymous": false,
      "inputs": [
        {
          "indexed": true,
          "internalType": "address",
          "name": "anima",
          "type": "address"
        }
      ],
      "name": "AnimaBenedicta",
      "type": "event"
    },
    {
      "anonymous": false,
      "inputs": [
        {
          "indexed": true,
          "internalType": "address",
          "name": "anima",
          "type": "address"
        }
      ],
      "name": "BenedictioRevocata",
      "type": "event"
    },
    {
      "anonymous": false,
      "inputs": [
        {
          "indexed": false,
          "internalType": "uint64",
          "name": "version",
          "type": "uint64"
        }
      ],
      "name": "Initialized",
      "type": "event"
    },
    {
      "anonymous": false,
      "inputs": [
        {
          "indexed": true,
          "internalType": "bytes32",
          "name": "role",
          "type": "bytes32"
        },
        {
          "indexed": true,
          "internalType": "bytes32",
          "name": "previousAdminRole",
          "type": "bytes32"
        },
        {
          "indexed": true,
          "internalType": "bytes32",
          "name": "newAdminRole",
          "type": "bytes32"
        }
      ],
      "name": "RoleAdminChanged",
      "type": "event"
    },
    {
      "anonymous": false,
      "inputs": [
        {
          "indexed": true,
          "internalType": "bytes32",
          "name": "role",
          "type": "bytes32"
        },
        {
          "indexed": true,
          "internalType": "address",
          "name": "account",
          "type": "address"
        },
        {
          "indexed": true,
          "internalType": "address",
          "name": "sender",
          "type": "address"
        }
      ],
      "name": "RoleGranted",
      "type": "event"
    },
    {
      "anonymous": false,
      "inputs": [
        {
          "indexed": true,
          "internalType": "bytes32",
          "name": "role",
          "type": "bytes32"
        },
        {
          "indexed": true,
          "internalType": "address",
          "name": "account",
          "type": "address"
        },
        {
          "indexed": true,
          "internalType": "address",
          "name": "sender",
          "type": "address"
        }
      ],
      "name": "RoleRevoked",
      "type": "event"
    },
    {
      "anonymous": false,
      "inputs": [
        {
          "indexed": true,
          "internalType": "address",
          "name": "implementation",
          "type": "address"
        }
      ],
      "name": "Upgraded",
      "type": "event"
    },
    {
      "inputs": [],
      "name": "DEFAULT_ADMIN_ROLE",
      "outputs": [
        {
          "internalType": "bytes32",
          "name": "",
          "type": "bytes32"
        }
      ],
      "stateMutability": "view",
      "type": "function"
    },
    {
      "inputs": [],
      "name": "UPGRADE_INTERFACE_VERSION",
      "outputs": [
        {
          "internalType": "string",
          "name": "",
          "type": "string"
        }
      ],
      "stateMutability": "view",
      "type": "function"
    },
    {
      "inputs": [],
      "name": "VERIFICATOR_ROLE",
      "outputs": [
        {
          "internalType": "bytes32",
          "name": "",
          "type": "bytes32"
        }
      ],
      "stateMutability": "view",
      "type": "function"
    },
    {
      "inputs": [
        {
          "internalType": "address",
          "name": "anima",
          "type": "address"
        }
      ],
      "name": "blessAddress",
      "outputs": [],
      "stateMutability": "nonpayable",
      "type": "function"
    },
    {
      "inputs": [
        {
          "internalType": "address[]",
          "name": "animae",
          "type": "address[]"
        }
      ],
      "name": "blessMultipleAddresses",
      "outputs": [],
      "stateMutability": "nonpayable",
      "type": "function"
    },
    {
      "inputs": [
        {
          "internalType": "bytes32",
          "name": "role",
          "type": "bytes32"
        }
      ],
      "name": "getRoleAdmin",
      "outputs": [
        {
          "internalType": "bytes32",
          "name": "",
          "type": "bytes32"
        }
      ],
      "stateMutability": "view",
      "type": "function"
    },
    {
      "inputs": [
        {
          "internalType": "bytes32",
          "name": "role",
          "type": "bytes32"
        },
        {
          "internalType": "address",
          "name": "account",
          "type": "address"
        }
      ],
      "name": "grantRole",
      "outputs": [],
      "stateMutability": "nonpayable",
      "type": "function"
    },
    {
      "inputs": [
        {
          "internalType": "bytes32",
          "name": "role",
          "type": "bytes32"
        },
        {
          "internalType": "address",
          "name": "account",
          "type": "address"
        }
      ],
      "name": "hasRole",
      "outputs": [
        {
          "internalType": "bool",
          "name": "",
          "type": "bool"
        }
      ],
      "stateMutability": "view",
      "type": "function"
    },
    {
      "inputs": [
        {
          "internalType": "address",
          "name": "initialAdmin",
          "type": "address"
        },
        {
          "internalType": "address",
          "name": "initialVerificator",
          "type": "address"
        }
      ],
      "name": "initialize",
      "outputs": [],
      "stateMutability": "nonpayable",
      "type": "function"
    },
    {
      "inputs": [
        {
          "internalType": "address",
          "name": "",
          "type": "address"
        }
      ],
      "name": "isPrivileged",
      "outputs": [
        {
          "internalType": "bool",
          "name": "",
          "type": "bool"
        }
      ],
      "stateMutability": "view",
      "type": "function"
    },
    {
      "inputs": [
        {
          "internalType": "address",
          "name": "anima",
          "type": "address"
        }
      ],
      "name": "isSoulBlessed",
      "outputs": [
        {
          "internalType": "bool",
          "name": "",
          "type": "bool"
        }
      ],
      "stateMutability": "view",
      "type": "function"
    },
    {
      "inputs": [],
      "name": "proxiableUUID",
      "outputs": [
        {
          "internalType": "bytes32",
          "name": "",
          "type": "bytes32"
        }
      ],
      "stateMutability": "view",
      "type": "function"
    },
    {
      "inputs": [
        {
          "internalType": "bytes32",
          "name": "role",
          "type": "bytes32"
        },
        {
          "internalType": "address",
          "name": "callerConfirmation",
          "type": "address"
        }
      ],
      "name": "renounceRole",
      "outputs": [],
      "stateMutability": "nonpayable",
      "type": "function"
    },
    {
      "inputs": [
        {
          "internalType": "address",
          "name": "anima",
          "type": "address"
        }
      ],
      "name": "revokeBlessing",
      "outputs": [],
      "stateMutability": "nonpayable",
      "type": "function"
    },
    {
      "inputs": [
        {
          "internalType": "bytes32",
          "name": "role",
          "type": "bytes32"
        },
        {
          "internalType": "address",
          "name": "account",
          "type": "address"
        }
      ],
      "name": "revokeRole",
      "outputs": [],
      "stateMutability": "nonpayable",
      "type": "function"
    },
    {
      "inputs": [
        {
          "internalType": "bytes4",
          "name": "interfaceId",
          "type": "bytes4"
        }
      ],
      "name": "supportsInterface",
      "outputs": [
        {
          "internalType": "bool",
          "name": "",
          "type": "bool"
        }
      ],
      "stateMutability": "view",
      "type": "function"
    },
    {
      "inputs": [
        {
          "internalType": "address",
          "name": "newImplementation",
          "type": "address"
        },
        {
          "internalType": "bytes",
          "name": "data",
          "type": "bytes"
        }
      ],
      "name": "upgradeToAndCall",
      "outputs": [],
      "stateMutability": "payable",
      "type": "function"
    }
  ],
  "bytecode": "0x60a080604052346100ea57306080527ff0c57e16840df040f15088dc2f81fe391c3923bec73e23a9662efc9c229c6a005460ff8160401c166100d9576002600160401b03196001600160401b03821601610073575b6040516110b990816100f082396080518181816104d901526105b70152f35b6001600160401b0319166001600160401b039081177ff0c57e16840df040f15088dc2f81fe391c3923bec73e23a9662efc9c229c6a005581527fc7f505b2f371ae2175ee4913f4499e1f2633a7b5936321eed1cdaeb6115181d290602090a13880610054565b63f92ee8a960e01b60005260046000fd5b600080fdfe608080604052600436101561001357600080fd5b60003560e01c90816301ffc9a714610ac957508063248a9ca314610a875780632e2326d5146101e05780632f2ff15d14610a3a57806336568abe146109f4578063485cc955146108315780634f1ef2861461053a57806352d1902d146104be5780638546698a14610387578063873024091461031257806391d14854146102b7578063a217fddf1461029b578063ad3cb1cc1461021f578063c81502cd146101e0578063d547741f1461018c578063d886a93f146101515763d9c3e243146100da57600080fd5b3461014c57602036600319011261014c576001600160a01b036100fb610b1c565b610103610c22565b1661010f811515610bd6565b806000526000602052604060002060ff1981541690557febabc2f1e0ab2a8a72d2fcb8b75cd7e740ecdcec388a0ba275ce45bfbc292f02600080a2005b600080fd5b3461014c57600036600319011261014c5760206040517f0f5f0728ddf8da696203830a46ca8e00529ba074ada9bd4a0aa7ed8122d088868152f35b3461014c57604036600319011261014c576101de6004356101ab610b32565b906101d96101d48260005260008051602061106483398151915260205260016040600020015490565b610c94565b610f1c565b005b3461014c57602036600319011261014c576001600160a01b03610201610b1c565b166000526000602052602060ff604060002054166040519015158152f35b3461014c57600036600319011261014c57604080519061023f8183610b48565b60058252640352e302e360dc1b6020830152805180926020825280519081602084015260005b8281106102845750506000828201840152601f01601f19168101030190f35b602082820181015187830187015286945001610265565b3461014c57600036600319011261014c57602060405160008152f35b3461014c57604036600319011261014c576102d0610b32565b6004356000526000805160206110648339815191526020526001600160a01b0360406000209116600052602052602060ff604060002054166040519015158152f35b3461014c57602036600319011261014c576001600160a01b03610333610b1c565b61033b610c22565b16610347811515610bd6565b8060005260006020526040600020600160ff198254161790557fc3a50d8215e6b4f3aae421a947bdaa05c72c29115065805cc38c345fd5494693600080a2005b3461014c57602036600319011261014c5760043567ffffffffffffffff811161014c573660238201121561014c5780600401359067ffffffffffffffff821161014c576024810190602436918460051b01011161014c576103e6610c22565b60005b8281106103f257005b8061041b6001600160a01b0361041361040e6001958888610b9c565b610bc2565b161515610bd6565b6001600160a01b0361043161040e838787610b9c565b16600052600060205260ff604060002054161561044f575b016103e9565b6001600160a01b0361046561040e838787610b9c565b16600052600060205260406000208260ff198254161790556001600160a01b0361049361040e838787610b9c565b167fc3a50d8215e6b4f3aae421a947bdaa05c72c29115065805cc38c345fd5494693600080a2610449565b3461014c57600036600319011261014c576001600160a01b037f00000000000000000000000000000000000000000000000000000000000000001630036105295760206040517f360894a13ba1a3210667c828492db98dca3e2076cc3735a920a3ca505d382bbc8152f35b63703e46dd60e11b60005260046000fd5b604036600319011261014c5761054e610b1c565b6024359067ffffffffffffffff821161014c573660238301121561014c5781600401359061057b82610b80565b916105896040519384610b48565b8083526020830193366024838301011161014c57816000926024602093018737840101526001600160a01b037f0000000000000000000000000000000000000000000000000000000000000000168030149081156107fc575b50610529573360009081527fb7db2dd08fcb62d0c9e08c51941cae53c267786a0b75803fb7960902fc8ef97d602052604090205460ff16156107e2576040516352d1902d60e01b81526001600160a01b0382169390602081600481885afa600091816107ae575b506106635784634c9c8ce360e01b60005260045260246000fd5b807f360894a13ba1a3210667c828492db98dca3e2076cc3735a920a3ca505d382bbc86920361079a5750823b1561078657807fffffffffffffffffffffffff00000000000000000000000000000000000000007f360894a13ba1a3210667c828492db98dca3e2076cc3735a920a3ca505d382bbc5416177f360894a13ba1a3210667c828492db98dca3e2076cc3735a920a3ca505d382bbc557fbc7cd75a20ee27fd9adebab32041f755214dbc6bffa90cc0225b39da2e5c2d3b600080a282511561076b57600080916101de945190845af43d15610763573d9161074683610b80565b926107546040519485610b48565b83523d6000602085013e611005565b606091611005565b5050503461077557005b63b398979f60e01b60005260046000fd5b634c9c8ce360e01b60005260045260246000fd5b632a87526960e21b60005260045260246000fd5b9091506020813d6020116107da575b816107ca60209383610b48565b8101031261014c57519086610649565b3d91506107bd565b63e2517d3f60e01b60005233600452600060245260446000fd5b90506001600160a01b037f360894a13ba1a3210667c828492db98dca3e2076cc3735a920a3ca505d382bbc54161415846105e2565b3461014c57604036600319011261014c5761084a610b1c565b610852610b32565b907ff0c57e16840df040f15088dc2f81fe391c3923bec73e23a9662efc9c229c6a00549160ff8360401c16159267ffffffffffffffff8116801590816109ec575b60011490816109e2575b1590816109d9575b506109c85767ffffffffffffffff1981166001177ff0c57e16840df040f15088dc2f81fe391c3923bec73e23a9662efc9c229c6a0055610905926108ff9185610989575b506108f2610fc5565b6108fa610fc5565b610ce8565b50610d9a565b5061090c57005b68ff0000000000000000197ff0c57e16840df040f15088dc2f81fe391c3923bec73e23a9662efc9c229c6a0054167ff0c57e16840df040f15088dc2f81fe391c3923bec73e23a9662efc9c229c6a00557fc7f505b2f371ae2175ee4913f4499e1f2633a7b5936321eed1cdaeb6115181d2602060405160018152a1005b68ffffffffffffffffff191668010000000000000001177ff0c57e16840df040f15088dc2f81fe391c3923bec73e23a9662efc9c229c6a0055856108e9565b63f92ee8a960e01b60005260046000fd5b905015856108a5565b303b15915061089d565b859150610893565b3461014c57604036600319011261014c57610a0d610b32565b336001600160a01b03821603610a29576101de90600435610f1c565b63334bd91960e11b60005260046000fd5b3461014c57604036600319011261014c576101de600435610a59610b32565b90610a826101d48260005260008051602061106483398151915260205260016040600020015490565b610e68565b3461014c57602036600319011261014c576020610ac160043560005260008051602061106483398151915260205260016040600020015490565b604051908152f35b3461014c57602036600319011261014c576004359063ffffffff60e01b821680920361014c57602091637965db0b60e01b8114908115610b0b575b5015158152f35b6301ffc9a760e01b14905083610b04565b600435906001600160a01b038216820361014c57565b602435906001600160a01b038216820361014c57565b90601f8019910116810190811067ffffffffffffffff821117610b6a57604052565b634e487b7160e01b600052604160045260246000fd5b67ffffffffffffffff8111610b6a57601f01601f191660200190565b9190811015610bac5760051b0190565b634e487b7160e01b600052603260045260246000fd5b356001600160a01b038116810361014c5790565b15610bdd57565b60405162461bcd60e51b815260206004820152601c60248201527f416e696d61206e6f6e20706f74657374206573736520696e616e6973000000006044820152606490fd5b3360009081527f9c4dd10f18fbee85d1f5eba8fa18d2dce65cb8734487fbcbc2a7be46925878d1602052604090205460ff1615610c5b57565b63e2517d3f60e01b600052336004527f0f5f0728ddf8da696203830a46ca8e00529ba074ada9bd4a0aa7ed8122d0888660245260446000fd5b8060005260008051602061106483398151915260205260406000206001600160a01b03331660005260205260ff6040600020541615610cd05750565b63e2517d3f60e01b6000523360045260245260446000fd5b6001600160a01b03811660009081527fb7db2dd08fcb62d0c9e08c51941cae53c267786a0b75803fb7960902fc8ef97d602052604090205460ff16610d94576001600160a01b031660008181527fb7db2dd08fcb62d0c9e08c51941cae53c267786a0b75803fb7960902fc8ef97d60205260408120805460ff191660011790553391907f2f8788117e7eff1d82e926ec794901d17c78024a50270940304540a733656f0d8180a4600190565b50600090565b6001600160a01b03811660009081527f9c4dd10f18fbee85d1f5eba8fa18d2dce65cb8734487fbcbc2a7be46925878d1602052604090205460ff16610d94576001600160a01b031660008181527f9c4dd10f18fbee85d1f5eba8fa18d2dce65cb8734487fbcbc2a7be46925878d160205260408120805460ff191660011790553391907f0f5f0728ddf8da696203830a46ca8e00529ba074ada9bd4a0aa7ed8122d08886907f2f8788117e7eff1d82e926ec794901d17c78024a50270940304540a733656f0d9080a4600190565b8060005260008051602061106483398151915260205260406000206001600160a01b03831660005260205260ff6040600020541615600014610f15578060005260008051602061106483398151915260205260406000206001600160a01b0383166000526020526040600020600160ff198254161790556001600160a01b03339216907f2f8788117e7eff1d82e926ec794901d17c78024a50270940304540a733656f0d600080a4600190565b5050600090565b8060005260008051602061106483398151915260205260406000206001600160a01b03831660005260205260ff60406000205416600014610f15578060005260008051602061106483398151915260205260406000206001600160a01b038316600052602052604060002060ff1981541690556001600160a01b03339216907ff6391f5c32d9c69d2a47ea670b442974b53935d1edc7fd64eb21e047a839171b600080a4600190565b60ff7ff0c57e16840df040f15088dc2f81fe391c3923bec73e23a9662efc9c229c6a005460401c1615610ff457565b631afcd79f60e31b60005260046000fd5b9061102b575080511561101a57602081519101fd5b63d6bda27560e01b60005260046000fd5b8151158061105a575b61103c575090565b6001600160a01b0390639996b31560e01b6000521660045260246000fd5b50803b1561103456fe02dd7bc7dec4dceedda775e58dd541e08a116c6c53815c0bd028192f7b626800a26469706673582212200700bcd987c383bd8d1727148e000c941edb99fa9b74b259bf0d8c40d518c5fd64736f6c634300081d0033",
  "linkReferences": {},
  "deployedLinkReferences": {}
}